:100000000C9434000C9451000C9451000C94510049
:100010000C9451000C9451000C9451000C9451001C
:100020000C9451000C9451000C9451000C9451000C
:100030000C9451000C9451000C9451000C945100FC
:100040000C9451000C9451000C9451000C945100EC
:100050000C9451000C9451000C9451000C945100DC
:100060000C9451000C94510011241FBECFEFD8E026
:10007000DEBFCDBF11E0A0E0B1E0ECECF8E002C0E3
:1000800005900D92A434B107D9F711E0A4E4B1E0D2
:1000900001C01D92AA34B107E1F70E9466000C94DA
:1000A00064040C94000084B1876084B985B18760D2
:1000B00085B98AB18C6F8AB98BB183708BB984B1E1
:1000C000886284B9249881E58CBD08950E9453000C
:1000D0000E944F0180E090E00895382F3295307FE4
:1000E00020E0660F771F660F771F622B732B28980F
:1000F00082E08A95F1F700C07EBD0DB407FEFDCF0A
:100100006EBD0DB407FEFDCF289A089568606EBDE0
:100110000DB407FEFDCF25B1882311F49BEF01C07C
:100120009DEF922395B99FEF9EBD0DB407FEFDCFC5
:100130009EB5392F20E09FEF9EBD0DB407FEFDCF89
:100140009EB5290F311D95B1882311F484E001C0BB
:1001500082E0892B85B9369527953F71C9010895AD
:100160001F93182F8A3019F48DE00E94B0008091FF
:10017000C00085FFFCCF1093C60080E090E01F9187
:100180000895CF92DF92EF92FF920F931F93CF9338
:10019000DF9380E091E00E94710186E191E00E948E
:1001A000710100E010E0CDE1D1E08FEF602F0E94FF
:1001B000860000D000D000D0EDB7FEB73196ADB7C5
:1001C000BEB71296DC93CE93119713830283969554
:1001D0008795958384830E945C010F5F1F4F8DB7C5
:1001E0009EB706960FB6F8949EBF0FBE8DBF08301F
:1001F0001105D9F660914601709147018AE00E948D
:10020000B0008EE291E00E94710100E010E07E01FA
:1002100080E0602F0E94860000D000D000D0EDB7B3
:10022000FEB73196ADB7BEB71196EC921197129604
:10023000FC921383028396958795958384830E940D
:100240005C010F5F1F4F8DB79EB706960FB6F894EF
:100250009EBF0FBE8DBF08301105D1F660914601DB
:10026000709147018AE00E94B000DF91CF911F9109
:100270000F91FF90EF90DF90CF9008959093C5007D
:100280008093C40088E18093C10086E08093C2001F
:1002900085E391E09093470180934601089583E3BD
:1002A00090E00E943E018FEC97E00197F1F700C0CB
:1002B00000000E94C1000895A0E0B0E0E2E6F1E095
:1002C0000C943D04FE013596619171918091460137
:1002D00090914701AF010E94A6012096E2E00C94A4
:1002E0005904EF92FF920F931F93CF93DF938C01EA
:1002F000E0914601F0914701838181FF1FC0C0E07A
:10030000D0E00AC0DB011896ED91FC911997099590
:10031000009711F0CFEFDFEFF80181918F0160912D
:10032000460170914701882369F7DB011896ED912A
:10033000FC9119978AE00995009711F0CFEFDFEF54
:10034000CE01CDB7DEB7E6E00C945504ACE0B0E0EA
:10035000ECEAF1E00C942D046C011B018A01FC0114
:1003600017821682838181FFD1C12E010894411C1E
:10037000511CF6019381F10193FD859193FF8191C9
:100380001F01882309F4BEC1853239F493FD85919C
:1003900093FF81911F01853229F490E0B6010E94FC
:1003A000A303E7CFEE24FF2420E02032B0F48B3209
:1003B00069F08C3228F4803251F0833271F40BC032
:1003C0008D3239F0803349F421602CC022602460E2
:1003D00029C0286027C0206125C027FD2CC0382FE8
:1003E00030533A3098F426FF08C08E2D880FE82E3F
:1003F000EE0CEE0CE80EE30E15C08F2D880FF82ED4
:10040000FF0CFF0CF80EF30E20620CC08E3221F4AC
:1004100026FD78C1206406C08C3611F4206802C025
:10042000883649F4F10193FD859193FF81911F0175
:10043000882309F0BACF982F9554933018F0905232
:10044000933028F40C5F1F4FFFE3F9830DC0833610
:1004500031F0833771F0833509F060C022C0F801B4
:10046000808189830E5F1F4F420171E0A72EB12C5E
:1004700016C062E0662E712C600E711EF80180803D
:10048000918026FF03C06E2D70E002C06FEF7FEFFA
:10049000C4012C870E9498035C0183012C852F776F
:1004A00017C052E0652E712C600E711EF80180801D
:1004B000918026FF03C06E2D70E002C06FEF7FEFCA
:1004C000C4012C870E948D035C012C852068830168
:1004D00023FD20C008C080E290E0B6012C870E9476
:1004E000A303FA942C858F2D90E0A816B90698F3F3
:1004F00011C0F40127FD859127FF81914F0190E004
:10050000B6012C870E94A3032C85F110FA9408945D
:10051000A108B108A114B10461F7F1C0843611F04B
:10052000893649F527FF08C0F80160817181828111
:1005300093810C5F1F4F09C0F8016081718188278A
:1005400077FD8095982F0E5F1F4F4FE6B42EB22295
:1005500097FF09C090958095709561957F4F8F4F5B
:100560009F4FF0E8BF2AA2012AE030E00E94CF03AB
:10057000782E741845C0853731F43FEEB32EB22281
:100580002AE030E025C099EFB92EB2228F36C1F0B3
:10059000803720F4883509F0B5C00DC0803721F0D0
:1005A000883709F0AFC002C020E1B22AB4FE0BC008
:1005B00084E0B82A08C0B4FE09C0E6E0BE2A06C03E
:1005C00028E030E005C020E130E002C020E132E068
:1005D000B7FE08C0F80160817181828193810C5F50
:1005E0001F4F07C0F8016081718180E090E00E5FCD
:1005F0001F4FA2010E94CF03782E7418FFE7BF227D
:10060000B6FE0BC02EEFB2227E1438F4B4FE07C043
:10061000B2FC05C08FEEB82202C0A72C01C0AE2CE0
:100620008B2D90E0B4FE0DC0FE01E70DF11D208181
:10063000203319F4E9EEBE2209C0A394B2FE06C02D
:1006400004C086789070009709F0A3948B2C9924AD
:10065000B3FC14C0B0FE0FC0AF1428F4E72CEF0CAD
:10066000EA18AF2C08C0E72C06C080E290E0B60183
:100670000E94A303A394AF14C0F304C0AF1410F4FA
:10068000FA1801C0FF2484FE0FC080E390E0B60199
:100690000E94A30382FE1FC081FE03C088E590E094
:1006A00010C088E790E00DC0C40186789070009774
:1006B00091F081FC02C080E201C08BE2B7FC8DE2C8
:1006C00090E0B6010E94A30306C080E390E0B6016B
:1006D0000E94A303EA947E14C0F37A94F201E70D1A
:1006E000F11D808190E0B6010E94A3037720A9F755
:1006F00006C080E290E0B6010E94A303FA94FF20B6
:10070000C1F737CEF6012681378102C02FEF3FEFC8
:10071000C9012C96E2E10C944904FC01059061505A
:1007200070400110D8F7809590958E0F9F1F089507
:10073000FC016150704001900110D8F780959095B0
:100740008E0F9F1F08950F931F93CF93DF938C01FC
:10075000EB018B8181FF1BC082FF0DC02E813F8189
:100760008C819D812817390764F4E881F981019310
:10077000F983E88306C0E885F985802F09950097FD
:1007800031F48E819F8101969F838E8302C00FEF8B
:100790001FEFC801DF91CF911F910F910895FA01CA
:1007A000AA27283051F1203181F1E8946F936E7FB0
:1007B0006E5F7F4F8F4F9F4FAF4FB1E03ED0B4E0A1
:1007C0003CD0670F781F891F9A1FA11D680F791FE2
:1007D0008A1F911DA11D6A0F711D811D911DA11DF3
:1007E00020D009F468943F912AE0269F1124301903
:1007F000305D3193DEF6CF010895462F4770405D9E
:100800004193B3E00FD0C9F7F6CF462F4F70405D4C
:100810004A3318F0495D31FD4052419302D0A9F7A7
:10082000EACFB4E0A6959795879577956795BA95A1
:10083000C9F700976105710508959B01AC010A2E67
:1008400006945795479537952795BA95C9F7620F3E
:10085000731F841F951FA01D08952F923F924F92E2
:100860005F926F927F928F929F92AF92BF92CF9240
:10087000DF92EF92FF920F931F93CF93DF93CDB749
:10088000DEB7CA1BDB0B0FB6F894DEBF0FBECDBFC1
:1008900009942A88398848885F846E847D848C8492
:1008A0009B84AA84B984C884DF80EE80FD800C819B
:1008B0001B81AA81B981CE0FD11D0FB6F894DEBF7E
:0C08C0000FBECDBFED010895F894FFCFEE
:1008CC005072696E74696E67204144432076616C86
:1008DC007565733A0A004144435F413A0020204356
:1008EC0068202564203D202564206D560A00414473
:1008FC00435F423A000000000200000000B000001C
:04090C0000000000E7
:00000001FF
