:100000000C9434000C9451000C9451000C94510049
:100010000C9451000C9451000C9451000C9451001C
:100020000C9451000C9451000C9451000C9451000C
:100030000C9451000C9451000C9451000C945100FC
:100040000C9451000C9451000C9451000C945100EC
:100050000C9451000C9451000C9451000C945100DC
:100060000C9451000C94510011241FBECFEFD8E026
:10007000DEBFCDBF11E0A0E0B1E0E2E2F8E002C0F7
:1000800005900D92AC33B107D9F711E0ACE3B1E0C4
:1000900001C01D92A234B107E1F70E9466000C94E2
:1000A0000F040C94000084B1876084B985B1876027
:1000B00085B98AB18C6F8AB98BB183708BB984B1E1
:1000C000886284B9249881E58CBD08950E9453000C
:1000D0000E942F0180E090E00895382F3295307F04
:1000E00020E0660F771F660F771F622B732B28980F
:1000F00082E08A95F1F700C07EBD0DB407FEFDCF0A
:100100006EBD0DB407FEFDCF289A08956EBD0DB4E7
:1001100007FEFDCF25B1813011F49BEF01C09DEFAB
:10012000922395B992E09A95F1F700C09FEF9EBD9A
:100130000DB407FEFDCF2EB530E02F713070522F79
:1001400044279FEF9EBD0DB407FEFDCF2EB530E0D6
:10015000242B352B95B1813011F484E001C082E06D
:10016000892B85B936952795C90108951F93182FB6
:100170008A3019F48DE00E94B6008091C00085FF9E
:10018000FCCF1093C60080E090E01F9108950F937C
:100190001F93CF93DF93C0E0D0E000E011E080E058
:1001A0006C2F0E94860000D000D000D0EDB7FEB7C3
:1001B0003196ADB7BEB712961C930E931197D383A9
:1001C000C283958384830E943C0121962DB73EB75C
:1001D0002A5F3F4F0FB6F8943EBF0FBE2DBFC83009
:1001E000D105E9F6C0E0D0E007E111E081E06C2F35
:1001F0000E94860000D000D000D0EDB7FEB7319647
:10020000ADB7BEB712961C930E931197D383C283DA
:10021000958384830E943C0121962DB73EB72A5FC7
:100220003F4F0FB6F8943EBF0FBE2DBFC830D1056B
:10023000E9F6DF91CF911F910F9108959093C5003A
:100240008093C40088E18093C10086E08093C2005F
:100250008EE291E090933F0180933E01089583E305
:1002600090E00E941E018FEC97E00197F1F700C02B
:1002700000000E94C7000895A0E0B0E0E2E4F1E0D1
:100280000C94E803FE0135966191719180913E01D5
:1002900090913F01AF010E9451012096E2E00C9441
:1002A0000404ACE0B0E0E7E5F1E00C94D8036C01A5
:1002B0001B018A01FC0117821682838181FFD1C153
:1002C0002E010894411C511CF6019381F10193FD0C
:1002D000859193FF81911F01882309F4BEC1853266
:1002E00039F493FD859193FF81911F01853229F4A3
:1002F00090E0B6010E944E03E7CFEE24FF2420E0F9
:100300002032B0F48B3269F08C3228F4803251F014
:10031000833271F40BC08D3239F0803349F421609F
:100320002CC02260246029C0286027C0206125C01D
:1003300027FD2CC0382F30533A3098F426FF08C0E0
:100340008E2D880FE82EEE0CEE0CE80EE30E15C095
:100350008F2D880FF82EFF0CFF0CF80EF30E206285
:100360000CC08E3221F426FD78C1206406C08C3684
:1003700011F4206802C0883649F4F10193FD85919B
:1003800093FF81911F01882309F0BACF982F9554CC
:10039000933018F09052933028F40C5F1F4FFFE316
:1003A000F9830DC0833631F0833771F0833509F05E
:1003B00060C022C0F801808189830E5F1F4F420117
:1003C00071E0A72EB12C16C062E0662E712C600E73
:1003D000711EF8018080918026FF03C06E2D70E0B1
:1003E00002C06FEF7FEFC4012C870E9443035C01C2
:1003F00083012C852F7717C052E0652E712C600E7B
:10040000711EF8018080918026FF03C06E2D70E080
:1004100002C06FEF7FEFC4012C870E9438035C019C
:100420002C852068830123FD20C008C080E290E075
:10043000B6012C870E944E03FA942C858F2D90E0F4
:10044000A816B90698F311C0F40127FD859127FF7E
:1004500081914F0190E0B6012C870E944E032C85BC
:10046000F110FA940894A108B108A114B10461F73D
:10047000F1C0843611F0893649F527FF08C0F8012C
:1004800060817181828193810C5F1F4F09C0F801E7
:1004900060817181882777FD8095982F0E5F1F4FAF
:1004A0004FE6B42EB22297FF09C0909580957095C3
:1004B00061957F4F8F4F9F4FF0E8BF2AA2012AE03E
:1004C00030E00E947A03782E741845C0853731F4E5
:1004D0003FEEB32EB2222AE030E025C099EFB92ECC
:1004E000B2228F36C1F0803720F4883509F0B5C0CC
:1004F0000DC0803721F0883709F0AFC002C020E17D
:10050000B22AB4FE0BC084E0B82A08C0B4FE09C009
:10051000E6E0BE2A06C028E030E005C020E130E079
:1005200002C020E132E0B7FE08C0F80160817181AD
:10053000828193810C5F1F4F07C0F8016081718138
:1005400080E090E00E5F1F4FA2010E947A03782E98
:100550007418FFE7BF22B6FE0BC02EEFB2227E1446
:1005600038F4B4FE07C0B2FC05C08FEEB82202C05A
:10057000A72C01C0AE2C8B2D90E0B4FE0DC0FE0167
:10058000E70DF11D2081203319F4E9EEBE2209C0E8
:10059000A394B2FE06C004C086789070009709F05C
:1005A000A3948B2C9924B3FC14C0B0FE0FC0AF14DD
:1005B00028F4E72CEF0CEA18AF2C08C0E72C06C093
:1005C00080E290E0B6010E944E03A394AF14C0F302
:1005D00004C0AF1410F4FA1801C0FF2484FE0FC049
:1005E00080E390E0B6010E944E0382FE1FC081FEB0
:1005F00003C088E590E010C088E790E00DC0C4011A
:1006000086789070009791F081FC02C080E201C072
:100610008BE2B7FC8DE290E0B6010E944E0306C06B
:1006200080E390E0B6010E944E03EA947E14C0F38A
:100630007A94F201E70DF11D808190E0B6010E94ED
:100640004E037720A9F706C080E290E0B6010E9431
:100650004E03FA94FF20C1F737CEF6012681378189
:1006600002C02FEF3FEFC9012C96E2E10C94F40396
:10067000FC010590615070400110D8F7809590956D
:100680008E0F9F1F0895FC01615070400190011072
:10069000D8F7809590958E0F9F1F08950F931F9305
:1006A000CF93DF938C01EB018B8181FF1BC082FF15
:1006B0000DC02E813F818C819D812817390764F4FC
:1006C000E881F9810193F983E88306C0E885F9851B
:1006D000802F0995009731F48E819F8101969F8329
:1006E0008E8302C00FEF1FEFC801DF91CF911F91E2
:1006F0000F910895FA01AA27283051F1203181F194
:10070000E8946F936E7F6E5F7F4F8F4F9F4FAF4F19
:10071000B1E03ED0B4E03CD0670F781F891F9A1F2C
:10072000A11D680F791F8A1F911DA11D6A0F711DE0
:10073000811D911DA11D20D009F468943F912AE0EC
:10074000269F11243019305D3193DEF6CF010895D4
:10075000462F4770405D4193B3E00FD0C9F7F6CF05
:10076000462F4F70405D4A3318F0495D31FD4052CD
:10077000419302D0A9F7EACFB4E0A6959795879563
:1007800077956795BA95C9F7009761057105089542
:100790009B01AC010A2E06945795479537952795EE
:1007A000BA95C9F7620F731F841F951FA01D089586
:1007B0002F923F924F925F926F927F928F929F9271
:1007C000AF92BF92CF92DF92EF92FF920F931F935F
:1007D000CF93DF93CDB7DEB7CA1BDB0B0FB6F89410
:1007E000DEBF0FBECDBF09942A88398848885F8450
:1007F0006E847D848C849B84AA84B984C884DF80C1
:10080000EE80FD800C811B81AA81B981CE0FD11DA4
:100810000FB6F894DEBF0FBECDBFED010895F8947A
:02082000FFCF08
:100822004144435F41206368616E6E656C202564BC
:10083200203D2025640A004144435F4220636861F1
:100842006E6E656C202564203D2025640A00000040
:0C085200000200000000B60000000000E2
:00000001FF
