:100000000C9434000C943E000C943E000C943E0082
:100010000C943E000C943E000C943E000C943E0068
:100020000C943E000C943E000C943E000C943E0058
:100030000C943E000C943E000C943E000C943E0048
:100040000C943E000C943E000C943E000C943E0038
:100050000C943E000C943E000C943E000C943E0028
:100060000C943E000C943E0011241FBECFEFD8E04C
:10007000DEBFCDBF0E9468000C949D000C94000070
:1000800084B1876084B985B1876085B98AB18C6F86
:100090008AB98BB183708BB93E985E9A0895382FD8
:1000A0003295307F20E0660F771F660F771F622B37
:1000B000732B289882E08A95F1F700C07EBD0DB4BD
:1000C00007FEFDCF6EBD0DB407FEFDCF289A089543
:1000D0000E9440008FE06FEF73E00E944F008FECB2
:1000E00097E00197F1F700C00000F4CF6EBD0DB4AA
:1000F00007FEFDCF25B1882311F49DEF01C09BEFD2
:10010000922395B992E09A95F1F700C09FEF9EBDBA
:100110000DB407FEFDCF9EB59FEF9EBD0DB407FE4B
:10012000FDCF9EB595B1882311F482E001C084E033
:0E013000892B85B98FEF9FE70895F894FFCFD4
:00000001FF
