:10000000F3C0000010C100000EC100000CC10000D0
:100010000AC1000008C1000006C1000004C10000C0
:1000200002C1000000C10000FEC00000FCC00000D2
:1000300077C10000F8C00000F6C00000F4C0000066
:10004000F2C00000F0C00000EEC00000ECC00000F4
:10005000EAC00000E8C00000E6C00000E4C0000004
:10006000E2C00000E0C00000DEC00000DCC0000014
:10007000DAC00000D8C00000D6C00000D4C0000024
:10008000D2C00000D0C00000CEC00000CCC0000034
:10009000CAC00000C8C00000C6C000005BC60000A7
:1000A0008BC60000BBC60000EBC60000BCC0000051
:1000B000BAC00000B8C00000B6C00000B4C0000064
:1000C000B2C00000B0C00000AEC00000ACC0000074
:1000D000AAC00000A8C00000A6C00000A4C0000084
:1000E000A2C00000A0C000009EC000009CC0000094
:1000F0009AC0000098C0000096C0000094C00000A4
:1001000092C0000090C000008EC000008CC00000B3
:100110008AC0000088C0000086C0000053C50000EF
:1001200083C50000B3C50000E3C500007CC000002B
:100130007AC0000078C0000076C0000074C00000E3
:1001400072C0000070C000006EC000006CC00000F3
:100150006AC0000068C0000066C0000064C0000003
:1001600062C0000060C000005EC000005CC0000013
:100170005AC0000058C0000056C0000054C0000023
:1001800052C0000050C000004EC000004CC0000033
:100190004AC0000048C0000046C0000044C0000043
:1001A00042C0000040C000003EC000003CC0000053
:1001B0003AC0000038C0000036C0000034C0000063
:1001C00032C0000030C000002EC000002CC0000073
:1001D0002AC0000028C0000026C0000024C0000083
:1001E00022C0000020C0000011241FBECFEFDFE2BC
:1001F000DEBFCDBF11E2A0E0B0E2E0EDFFE100E044
:100200000BBF02C007900D92AC31B107D9F711E2D4
:10021000ACE1B1E201C01D92A937B107E1F70E943C
:10022000B80C0C94E60FECCE8F929F92AF92BF92D7
:10023000CF92DF92EF92FF920F931F93CF93DF93B2
:10024000CDB7DEB7A897CDBFDEBFDE011196E0E0E7
:10025000F0E28AE001900D928150E1F780EA9AE0A5
:10026000BE016F5F7F4F0E94540A0F2EFCE1CF2E1C
:10027000F1E2DF2EF02D00E010E00F2EF6E5AF2EBC
:10028000F1E2BF2EF02D7E010894E11CF11C0F2E2F
:10029000FAE08F2EF0E29F2EF02DF501E00FF11F16
:1002A0008481D6018D936D0100D000D000D0EDB7D0
:1002B000FEB73196ADB7BEB71196ED92FC9212978C
:1002C00082829382848315820E942A0DEDB7FEB745
:1002D0003696EDBFFEBF80EA9AE0B7010E94540A4D
:1002E0000F5F1F4F08301105C1F68AE090E0898347
:1002F0009A8380EA9AE0BE016F5F7F4F0E94540AA2
:10030000A896CDBFDEBFDF91CF911F910F91FF90D7
:10031000EF90DF90CF90BF90AF909F908F90089517
:100320001F920F920FB60F920BB60F9211242F93BC
:100330003F934F935F936F937F938F939F93AF936D
:10034000BF93EF93FF9386E591E2E4D0FF91EF91A5
:10035000BF91AF919F918F917F916F915F914F91DD
:100360003F912F910F900BBE0F900FBE0F901F90DB
:100370001895CF93DF9387E0E0EAF0E0828383E093
:1003800090E060E41BD1C6E5D1E2CE0160E874E004
:1003900044E151E008D0CE0160E640E850E00ED0E4
:1003A000DF91CF910895FC01608371834283538371
:1003B000148A158A168A178A108E0895FC01A08166
:1003C000B181486318964C9318970190F081E02D05
:1003D000660F63870895FC01678B168A0895FC01F8
:1003E0008589882369F0A081B1811A968C911A972A
:1003F00084FF06C082E019968C93CF0161E0EBCFB9
:1004000085898830A0F48589DF01A80FB11D1C966D
:100410008C91A081B1811C968C931C9785898F5FEC
:10042000858B0190F081E02D83E081870895A08184
:10043000B18182E019968C93CF0162E0CCCFCF934B
:10044000DF93EC01E881F9818085846080878C8965
:100450008830F8F4E881F98184859C89FE01E90FF0
:10046000F11D8483EA81FB8109958C898F5F8C8BD8
:10047000888D882349F0E881F98182E08187CE0167
:1004800066E0A9DF188E0CC0E881F98183E08187DE
:1004900007C0E881F98186E08187CE0162E09BDFB9
:1004A000DF91CF910895DC01ED91FC9111972285A8
:1004B00021FF01C094CFC3CFDC01ED91FC911197D6
:1004C00020852B7F2087ED91FC9122852064228757
:1004D00061E081CFCF93DF93EC01888D882349F0D1
:1004E000E881F98182E08187CE0166E074DF188EB1
:1004F0000EC081E08E8B1F8AE881F98180858B7F19
:1005000080871C8A1D8AE881F98183E08187DF91D9
:10051000CF910895FC01A081B1811A964C911A9750
:10052000842F90E042FF06C0148A158A84E0878BEE
:10053000168A089543FF06C0148A158A83E0878BC4
:10054000168A08959C01217430702134310511F40C
:10055000CF01C0CF46FF02C0CF01AECF442314F479
:10056000CF01A1CFCF0165E036CF8FEF8093700030
:100570008093710080937200809373008093740065
:100580008093750080937600E0E5F0E08BE4828351
:100590008FB7F8949081986090838FBF818183FF9B
:1005A000FDCF80E490E063E090D58FB7F894E0E56C
:1005B000F0E090819E7F90838FBF08952FB7F894CD
:1005C000FC01E059FF4F60958081682360832FBF55
:1005D00008952FB7F894FC01E059FF4F8081682BF4
:1005E00060832FBF0895CF93DF93EC01FC017096D9
:1005F00020E030E0A62FB0E0CD01022E02C095959C
:1006000087950A94E2F780FD50832F5F3F4F319624
:100610002830310589F740FF07C041FF02C06D83D4
:1006200001C06E83698301C06A83DF91CF91089511
:10063000CF93DF93EC0188E0C03CD80729F483E036
:1006400090E068E0BBDF12C089E0C03CD80729F425
:1006500084E090E068E0B2DF11C08AE0C03CD807D7
:1006600029F485E090E068E0A9DF08C08BE0C03C99
:10067000D80721F486E090E068E0A0DF88818061FF
:100680008883DF91CF910895FF920F931F93CF93AB
:10069000DF93EC01F42EB901A80100E012E12AE792
:1006A00030E023D58881FF0CFF0C9CE0F922F82A6A
:1006B000F882DF91CF911F910F91FF900895FC0177
:1006C0004115510551F0A62FB72F8D91838382815B
:1006D0008823ECF741505040C1F780E090E0089546
:1006E000FB018081E82FE695E695E695F0E0F0962F
:1006F000EE0FFF1FE295F295F07FFE27E07FFE27C9
:10070000877021E030E0A90102C0440F551F8A958F
:10071000E2F746830895FB018081E82FE695E69590
:10072000E695F0E0F096EE0FFF1FE295F295F07F70
:10073000FE27E07FFE27877021E030E0A90102C09C
:10074000440F551F8A95E2F745830895CF93DF93B1
:10075000CDB7DEB72997CDBFDEBF07DF87E0E0EA80
:10076000F0E082830CD13DD180E092E0809334218F
:1007700090933521809332219093332180933021BF
:100780009093312180932A2190932B2180932821CB
:100790009093292180932621909327215CD180EA90
:1007A00096E061E041E050E01EDF80EA96E062E022
:1007B00041E050E018DF80EA96E064E041E050E07C
:1007C00012DF80EA96E068E041E050E00CDF80EA6A
:1007D00096E060E141E050E006DF80EA96E060E20A
:1007E00041E050E000DF80EA96E060E443E050E062
:1007F000FADEBFDD80E896E068E043E050E0F3DE3B
:1008000080E896E064E040E050E0EDDE83E090E0D8
:100810008D839E831F821886198680E092ECA1E06A
:10082000B0E089839A83AB83BC8385E090E060E18C
:10083000C5DE80EA9AE0BE016F5F7F4FC3D529967F
:10084000CDBFDEBFDF91CF9108950F931F93CF935C
:10085000DF93CDB7DEB72A97CDBFDEBF8C01BE01D7
:100860006F5F7F4FA1D38A819B819F7C90629B8326
:10087000817E8A831C8287E08D83C80161E674E0F3
:1008800035D1C801BE016F5F7F4F2CD3C80161E035
:10089000AE01485F5F4FE2D38A858C7F81608A8793
:1008A00081E088871986C80161E0AE01485F5F4F2B
:1008B0009ED32A96CDBFDEBFDF91CF911F910F91BE
:1008C0000895EF92FF920F931F93CF93DF9300D081
:1008D0000F92CDB7DEB78C017A01613009F045C0C7
:1008E000AE014F5F5F4FBAD34A81842F90E0887783
:1008F000907095958795959587959595879592E0B4
:100900000030190739F4E82FF0E0EE0FFF1FEA5C22
:10091000FE4D06C0E82FF0E0EE0FFF1FEA5BFE4D34
:10092000E082F182882329F097012C5B30402083FC
:10093000318390E0019668E070E00E94F50C880F2A
:10094000991F880F991F880F991F4778842B8A83D6
:10095000C80161E0AE014F5F5F4F49D38FB7F89494
:10096000F8019081946090838FBF2396CDBFDEBF46
:10097000DF91CF911F910F91FF90EF90089580E04C
:1009800092E063DF80E492E060DF7894E0E0F6E0FC
:10099000108A118A128A138A148A158A168A178A6B
:1009A000E0E2F6E0108A118A128A138A148A158A04
:1009B000168A178A80E092E0EED080E492E0EBD0D5
:1009C0008FB7F894E0E0F2E09081946090838FBF5D
:1009D0008FB7F894E0E4F2E09081946090838FBF49
:1009E0000895CF92DF92EF92FF920F931F9380E4CE
:1009F00096E060E143E050E0F6DD80E496E060E2FE
:100A000043E050E0F0DD80E496E060E440E050E058
:100A1000EADD80E496E060E843E050E0E4DD80EC6D
:100A200098E006DE80EC98E06AE171E240E000E4E4
:100A300012E42FE030E0CC24DD24760125DEE0EC6A
:100A4000F8E08081806480831F910F91FF90EF9088
:100A5000DF90CF900895CF92DF92EF92FF920F93A5
:100A60001F93CF93DF9300D0CDB7DEB70F2EF6E202
:100A7000EF2EF1E2FF2EF02D01E010E00F2EFAE153
:100A8000CF2EF1E2DF2EF02DF701819191917F01C0
:100A90009370880F991F880F991F9801322F222772
:100AA0003295307F822B932B99838A8380EC98E058
:100AB000B60116DE80EC98E0BE016F5F7F4F42E02A
:100AC00050E0FDDD80EC98E0B60125DE0F5F1F4FA2
:100AD00009301105C9F60F900F90DF91CF911F914A
:100AE0000F91FF90EF90DF90CF9008952FB7F8947B
:100AF00032E08030930729F4609377217093782156
:100B000008C032E08034930721F46093752170931C
:100B100076212FBF089522E08030920761F4809102
:100B20002421982F9F5F909324218823A1F481E0B2
:100B300090E062E043CD22E08034920761F480913E
:100B40002521982F9F5F90932521882321F482E00F
:100B500090E062E033CD089522E08030920759F4AE
:100B600080912421815080932421882399F481E06D
:100B700090E062E02ECD22E08034920759F480911B
:100B80002521815080932521882321F482E090E063
:100B900062E01FCD08951F93CF93DF93EC011FB741
:100BA000F894B9DF8881816088831FBF8FB7F8947C
:100BB000909170219F5F909370218FBFDF91CF91B3
:100BC0001F9108951F920F920FB60F920BB60F92BE
:100BD00011242F933F934F935F936F937F938F9342
:100BE0009F93AF93BF93EF93FF93E0E0F2E044A1B4
:100BF00055A1E0917721F091782180E092E061E0C9
:100C00000995FF91EF91BF91AF919F918F917F9146
:100C10006F915F914F913F912F910F900BBE0F906D
:100C20000FBE0F901F9018951F920F920FB60F9244
:100C30000BB60F9211242F933F934F935F936F93B3
:100C40007F938F939F93AF93BF93EF93FF93E0E0D6
:100C5000F2E044A555A5E0917721F091782180E05C
:100C600092E062E00995FF91EF91BF91AF919F9162
:100C70008F917F916F915F914F913F912F910F9045
:100C80000BBE0F900FBE0F901F9018951F920F92E2
:100C90000FB60F920BB60F9211242F933F934F93E1
:100CA0005F936F937F938F939F93AF93BF93EF93D4
:100CB000FF93E0E0F2E044A955A9E0917721F0919B
:100CC000782180E092E064E00995FF91EF91BF9177
:100CD000AF919F918F917F916F915F914F913F91D4
:100CE0002F910F900BBE0F900FBE0F901F90189575
:100CF0001F920F920FB60F920BB60F9211242F93E3
:100D00003F934F935F936F937F938F939F93AF9393
:100D1000BF93EF93FF93E0E0F2E044AD55ADE09177
:100D20007721F091782180E092E068E00995FF91C9
:100D3000EF91BF91AF919F918F917F916F915F9153
:100D40004F913F912F910F900BBE0F900FBE0F90C0
:100D50001F9018951F920F920FB60F920BB60F921D
:100D600011242F933F934F935F936F937F938F93B0
:100D70009F93AF93BF93EF93FF93E0E4F2E044A11E
:100D800055A1E0917521F091762180E492E061E037
:100D90000995FF91EF91BF91AF919F918F917F91B5
:100DA0006F915F914F913F912F910F900BBE0F90DC
:100DB0000FBE0F901F9018951F920F920FB60F92B3
:100DC0000BB60F9211242F933F934F935F936F9322
:100DD0007F938F939F93AF93BF93EF93FF93E0E441
:100DE000F2E044A555A5E0917521F091762180E4CB
:100DF00092E062E00995FF91EF91BF91AF919F91D1
:100E00008F917F916F915F914F913F912F910F90B3
:100E10000BBE0F900FBE0F901F9018951F920F9250
:100E20000FB60F920BB60F9211242F933F934F934F
:100E30005F936F937F938F939F93AF93BF93EF9342
:100E4000FF93E0E4F2E044A955A9E0917521F09107
:100E5000762180E492E064E00995FF91EF91BF91E3
:100E6000AF919F918F917F916F915F914F913F9142
:100E70002F910F900BBE0F900FBE0F901F901895E3
:100E80001F920F920FB60F920BB60F9211242F9351
:100E90003F934F935F936F937F938F939F93AF9302
:100EA000BF93EF93FF93E0E4F2E044AD55ADE091E2
:100EB0007521F091762180E492E068E00995FF9138
:100EC000EF91BF91AF919F918F917F916F915F91C2
:100ED0004F913F912F910F900BBE0F900FBE0F902F
:100EE0001F901895DF92EF92FF920F931F93CF936D
:100EF000DF938C017B0182E00030180781F482E0EF
:100F000061E270E0E8D0C82F82E060E270E0E3D0F8
:100F10003C2F20E0C82FD0E0C22BD32B13C0E2E03F
:100F200000341E07C9F582E065E270E0D4D0C82F16
:100F300082E064E270E0CFD03C2F20E0C82FD0E008
:100F4000C22BD32BDFB6F894C801E5DDF801208170
:100F500082E08083C487D587F70185819681F80177
:100F6000808F918FF7018281F8018283F70184815C
:100F7000F8018483F7018381F8018383F70181817C
:100F8000F8018183822F8170F7019081892BF8010C
:100F90008083C801E1DDDFBEDF91CF911F910F910A
:100FA000FF90EF90DF900895FF920F931F93CF93E0
:100FB000DF93EC018B01FFB6F894ADDD8881807C76
:100FC000F8018083888D998D858396838A818283B9
:100FD0008C8184838B81838389818183CE01BCDD75
:100FE000FFBEDF91CF911F910F91FF900895CF9297
:100FF000DF92EF92FF921F93CF93DF936C017A0100
:10100000862F90E083709070009721F46695669526
:10101000C2E001C0C0E060FFCF5FC6018096D0E0B3
:10102000CC0FDD1FCC0FDD1FCC0FDD1FC80FD91F6C
:101030001FB7F894C6016FDDF70180818883828134
:101040008A8381818983C60187DD1FBFDF91CF91AC
:101050001F91FF90EF90DF90CF900895CF92DF9295
:10106000EF92FF921F93CF93DF936C017A01862F4B
:1010700090E083709070009721F466956695C2E0C9
:1010800001C0C0E060FFCF5FC6018096D0E0CC0F0A
:10109000DD1FCC0FDD1FCC0FDD1FC80FD91F1FB701
:1010A000F894C60138DD8881F70180838A818283C4
:1010B00089818183C60150DD1FBFDF91CF911F91D0
:1010C000FF90EF90DF90CF9008951BBEFC0128EDBC
:1010D00024BF608308954091CA01E62FF72F8093C3
:1010E000CA0184914093CA010895CF92DF92EF9292
:1010F000FF920F931F93CF93DF93EC016A017B0163
:10110000DB01CA010197A109B109080F191F2A1FA4
:101110003B1FC901B801A70196017AD489019A0140
:101120000138110521053105F8F4013460F401326C
:1011300060F4013160F4093060F4053060F403308C
:1011400060F090E00BC093E009C092E007C092E825
:1011500005C091E003C091E801C090E888818C77D8
:10116000892B888381E001C08FEFDF91CF911F91A0
:101170000F91FF90EF90DF90CF900895FC01818157
:1011800085FFFDCF608380E090E008956F927F92AD
:101190008F929F92AF92BF92CF92DF92EF92FF9287
:1011A0000F931F93CF933C014A015B0168017901C2
:1011B000D901C801689412F8B695A79597958795B7
:1011C0001694D1F7B901A801032E36E176956795FB
:1011D000579547953A95D1F7302DF301248122FD9B
:1011E00008C0B695A7959795879576956795579575
:1011F000479588159905AA05BB0508F4BEC0841655
:101200009506A606B70608F4BAC0D30114968C91C9
:10121000149782FD04C0880C991CAA1CBB1CC70132
:10122000B601A5019401F4D389019A010F3F11057C
:101230002105310508F4B2C08FEF90E0A0E0B0E0E6
:10124000C9EF05C0081719072A073B0760F0880F88
:10125000991FAA1FBB1FCD3F0CF48160CF5FC73021
:1012600089F72C2F5BC02C2FCC230CF057C0D50155
:10127000C401880F991FAA1FBB1F880F991FAA1F9F
:10128000BB1F880F991FAA1FBB1FC81AD90AEA0AD9
:10129000FB0ACE3F2CF58C2F992787FD90954DEFBB
:1012A0005FEF481B590BD701C60104C0880F991F77
:1012B000AA1FBB1F4A95D2F7AC01BD01D501C401DD
:1012C000B695A79597958795840F951FA61FB71F6D
:1012D000BC01CD01A50194019BD389019A013FC0B6
:1012E0008C2F992787FD9095039604C0880C991C34
:1012F000AA1CBB1C8A95D2F7B501A4017695679507
:1013000057954795CB01BA016C0D7D1D8E1D9F1D14
:10131000A50194017DD389019A0121C0332727FDBE
:1013200030952D5F3F4FD501C40104C0880F991F30
:10133000AA1FBB1F2A95D2F79C01AD01B695A795B0
:1013400097958795C80ED91EEA1EFB1EC701B601E8
:101350005FD389019A010150104020403040812F15
:101360008F70C295C07FC82BD3011796CC93179767
:1013700016960C93169781E003C080E001C080E0D0
:10138000CF911F910F91FF90EF90DF90CF90BF9082
:10139000AF909F908F907F906F900895D501C4017A
:1013A000880F991FAA1FBB1F880F991FAA1FBB1F59
:1013B000880F991FAA1FBB1FC81AD90AEA0AFB0A7D
:1013C000C9EF69CF0F931F93CF93DF93EC018B018C
:1013D00088E0C03AD80729F483E090E060E1EED8D5
:1013E00012C0E8E0C03BDE0729F483E090E060E251
:1013F000E5D812C0F9E0C03ADF0729F484E090E0B4
:1014000060E1DCD812C089E0C03BD80729F484E051
:1014100090E060E2D3D812C0EAE0C03ADE0729F4D7
:1014200085E090E060E1CAD812C0FAE0C03BDF0777
:1014300029F485E090E060E2C1D811C08BE0C03AA9
:10144000D80729F486E090E060E1B8D808C0EBE066
:10145000C03BDE0721F486E090E060E2AFD88D81EA
:101460008F738D83F80196818481892B90859923D0
:1014700011F098E001C090E0892B8D83F801408144
:10148000518162817381CE0100E012E12AE730E0F0
:101490007DDE9C8198609C839C8190619C83DF9120
:1014A000CF911F910F9108950F931F93CF93DF93C7
:1014B0008C01EB016881662331F02196C8015EDE64
:1014C00069916623D9F780E090E0DF91CF911F9179
:1014D0000F9108950F931F93CF93DF93CDB7DEB78E
:1014E000A897CDBFDEBF00D000D000D0EDB7FEB7CB
:1014F00031968E010F5F1F4FADB7BEB711960D939A
:101500001C93129782E190E282839383809136212B
:101510009091372196958795848395839BD28DB73B
:101520009EB706968DBF9EBF80EA9AE0B801BCDFE9
:1015300000D000D000D0EDB7FEB73196ADB7BEB742
:1015400011960D931C9312978EE190E28283938300
:101550008091382190913921969587958483958340
:1015600079D28DB79EB706968DBF9EBF80EA9AE06E
:10157000B8019ADF00D000D000D0EDB7FEB73196A9
:10158000ADB7BEB711960D931C9312978FE290E200
:101590008283938380913A2190913B219695879500
:1015A000880F991F880F991F8483958353D28DB715
:1015B0009EB706968DBF9EBF80EA9AE0B80174DFA1
:1015C00000D000D000D0EDB7FEB73196ADB7BEB7B2
:1015D00011960D931C93129780E490E2828393837B
:1015E00080913C2190913D219695879584839583A8
:1015F00031D28DB79EB706968DBF9EBF80EA9AE026
:10160000B80152DF00D000D000D0EDB7FEB7319660
:10161000ADB7BEB711960D931C93129781E590E27A
:101620008283938380913E2190913F219695879567
:10163000880F991F880F991F848395830BD28DB7CC
:101640009EB706968DBF9EBF80EA9AE0B8012CDF58
:1016500000D000D000D0EDB7FEB73196ADB7BEB721
:1016600011960D931C93129782E690E282839383E6
:10167000809140219091412196958795848395830F
:10168000E9D18DB79EB706968DBF9EBF80EA9AE0DE
:10169000B8010ADF00D000D000D0EDB7FEB7319618
:1016A000ADB7BEB711960D931C93129783E790E2E6
:1016B00082839383809142219091432196958795CF
:1016C000880F991F880F991F84839583C3D18DB785
:1016D0009EB706968DBF9EBF80EA9AE0B801E4DE11
:1016E00000D000D000D0EDB7FEB73196ADB7BEB791
:1016F00011960D931C93129784E890E28283938352
:101700008091442190914521969587958483958376
:10171000A1D18DB79EB706968DBF9EBF80EA9AE095
:10172000B801C2DE00D000D000D0EDB7FEB73196D0
:10173000ADB7BEB711960D931C93129785E990E251
:101740008283938380914621909147219695879536
:10175000880F991F880F991F848395837BD18DB73C
:101760009EB706968DBF9EBF80EA9AE0B8019CDEC8
:1017700000D000D000D0EDB7FEB73196ADB7BEB700
:1017800011960D931C93129786EA90E282839383BD
:1017900080914821909149219695879584839583DE
:1017A00059D18DB79EB706968DBF9EBF80EA9AE04D
:1017B000B8017ADE00D000D000D0EDB7FEB7319688
:1017C000ADB7BEB711960D931C93129787EB90E2BD
:1017D0008283938380914A2190914B21969587959E
:1017E000880F991F880F991F8483958333D18DB7F4
:1017F0009EB706968DBF9EBF80EA9AE0B80154DE80
:1018000000D000D000D0EDB7FEB73196ADB7BEB76F
:1018100011960D931C93129788EC90E28283938328
:1018200080914C2190914D21969587958483958345
:1018300011D18DB79EB706968DBF9EBF80EA9AE004
:10184000B80132DE00D000D000D0EDB7FEB731963F
:10185000ADB7BEB711960D931C93129789ED90E228
:101860008283938380913621909137219695879535
:1018700084839583EFD08DB79EB706968DBF9EBFAC
:1018800080EA9AE0B80110DE00D000D000D0EDB7B9
:10189000FEB73196ADB7BEB711960D931C93129754
:1018A00088EE90E282839383809150219091512120
:1018B0009695879584839583CDD08DB79EB70696F0
:1018C0008DBF9EBF80EA9AE0B801EEDD00D000D067
:1018D00000D0EDB7FEB73196ADB7BEB711960D93F8
:1018E0001C93129785EF90E282839383809152211B
:1018F000909153219695879582959295907F982700
:10190000807F982784839583A5D08DB79EB7069650
:101910008DBF9EBF80EA9AE0B801C6DD00D000D03E
:1019200000D0EDB7FEB73196ADB7BEB711960D93A7
:101930001C93129787E091E28283938380915421D4
:1019400090915521969587958483958383D08DB703
:101950009EB706968DBF9EBF80EA9AE0B801A4DDCF
:10196000A896CDBFDEBFDF91CF911F910F91089553
:101970000E94A603E0EAF6E081E0858382E08583A9
:1019800084E0858388E0858380E1858380E28583A8
:101990008FEF93E080933421909335215CD80F2E04
:1019A000FAE2CF2EFCE2DF2EFAE0EF2EF0E0FF2E7F
:1019B000F02D90DDD701C6010197A109B109E1F72A
:1019C000F8CFAA1BBB1B51E107C0AA1FBB1FA6175C
:1019D000B70710F0A61BB70B881F991F5A95A9F7D8
:1019E00080959095BC01CD01089597FB092E07269F
:1019F0000AD077FD04D0E5DF06D000201AF47095F8
:101A000061957F4F0895F6F7909581959F4F0895C2
:101A1000A1E21A2EAA1BBB1BFD010DC0AA1FBB1FF2
:101A2000EE1FFF1FA217B307E407F50720F0A21B64
:101A3000B30BE40BF50B661F771F881F991F1A94D1
:101A400069F760957095809590959B01AC01BD01FB
:101A5000CF0108950F931F93CF93DF93CDB7DEB7D8
:101A60002E97CDBFDEBF0D891E8986E08C8309834A
:101A70001A838FEF9FE78D839E83AE01475E5F4F92
:101A8000CE0101966F89788D0DD0EF81F885E00F3A
:101A9000F11F10822E96CDBFDEBFDF91CF911F9137
:101AA0000F9108952F923F924F925F926F927F9283
:101AB0008F929F92AF92BF92CF92DF92EF92FF925E
:101AC0000F931F93CF93DF93CDB7DEB72D97CDBF85
:101AD000DEBF3C016C877D875A01FC0116821782AC
:101AE000838181FFBBC12E010894411C511CF3016D
:101AF0009381EC85FD8593FD859193FF8191EC8722
:101B0000FD87882309F4A6C1853241F493FD8591B0
:101B100093FF8191EC87FD87853221F490E0B3013A
:101B2000CBD1E5CFFF24EE2410E01032B0F48B329D
:101B300069F08C3228F4803251F0833271F40BC09A
:101B40008D3239F0803349F411602CC0126014607A
:101B500029C0186027C0106125C017FD2EC0282F8E
:101B600020532A3098F416FF08C08F2D880FF82EC6
:101B7000FF0CFF0CF80EF20E15C08E2D880FE82E0C
:101B8000EE0CEE0CE80EE20E10620CC08E3221F468
:101B900016FD60C1106406C08C3611F4106802C0D6
:101BA000883659F4EC85FD8593FD859193FF8191ED
:101BB000EC87FD87882309F0B8CF982F9554933090
:101BC00018F09052933038F424E030E0A20EB31EA7
:101BD0003FE339830FC0833631F0833781F083359B
:101BE00009F056C021C0F5018081898322E030E0F0
:101BF000A20EB31E21E0C22ED12C420113C092E0EE
:101C0000292E312C2A0C3B1CF5018080918016FF77
:101C100003C06F2D70E002C06FEF7FEFC40141D1B0
:101C20006C0151011F7714C082E0282E312C2A0C40
:101C30003B1CF5018080918016FF03C06F2D70E082
:101C400002C06FEF7FEFC40121D16C011068510118
:101C500013FD1AC005C080E290E0B3012DD1EA94D3
:101C60008E2D90E0C816D906B0F30EC0F40117FD12
:101C7000859117FF81914F0190E0B3011DD1E110D3
:101C8000EA940894C108D108C114D10479F7DFC0DF
:101C9000843611F0893649F5F50117FF07C08081B8
:101CA0009181A281B38124E030E008C080819181DC
:101CB000AA2797FDA095BA2F22E030E0A20EB31E0E
:101CC000012F0F76B7FF08C0B095A095909581952C
:101CD0009F4FAF4FBF4F0068BC01CD01A2012AE06A
:101CE00030E016D1D82ED4183EC0853721F41F7E9F
:101CF0002AE030E020C0197F8F36A9F0803720F429
:101D0000883509F0A7C00BC0803721F0883709F06B
:101D1000A1C001C0106114FF09C0146007C014FF06
:101D200008C0166006C028E030E005C020E130E0C1
:101D300002C020E132E0F50117FF07C06081718128
:101D40008281938144E050E006C06081718180E02F
:101D500090E042E050E0A40EB51EA201D9D0D82EEA
:101D6000D418012F0F7706FF09C00E7FDF1430F45F
:101D700004FF06C002FD04C00F7E02C01D2D01C07D
:101D80001F2D802F90E004FF0CC0FE01ED0DF11D12
:101D90002081203311F4097E09C002FF06C01E5FB6
:101DA00005C086789070009709F01F5F802E9924F7
:101DB00003FD11C000FF0CC0FD2C1E1548F4FE0CE5
:101DC000F11A1E2D05C080E290E0B30175D01F5FAF
:101DD0001E15C8F304C01E1510F4E11A01C0EE244C
:101DE00084FE0EC080E390E0B30166D082FE1DC089
:101DF00081FE03C088E590E010C088E790E00DC048
:101E0000C40186789070009781F081FC02C080E266
:101E100001C08BE207FD8DE290E0B3014DD005C01B
:101E200080E390E0B30148D0FA94DF14C8F3DA9469
:101E3000F201ED0DF11D808190E0B3013DD0DD2078
:101E4000B1F705C080E290E0B30136D0EA94EE200D
:101E5000C9F74DCEF3018681978102C08FEF9FEFC6
:101E60002D96CDBFDEBFDF91CF911F910F91FF90D7
:101E7000EF90DF90CF90BF90AF909F908F907F902A
:101E80006F905F904F903F902F900895FC010590C8
:101E9000615070400110D8F7809590958E0F9F1F6C
:101EA0000895FC016150704001900110D8F78095B1
:101EB00090958E0F9F1F08950F931F93CF93DF93DD
:101EC0008C01EB018B8181FF1BC082FF0DC02E8135
:101ED0003F818C819D812817390764F4E881F9815D
:101EE0000193E883F98306C0E885F985802F099579
:101EF000009731F48E819F8101968E839F8302C06B
:101F00000FEF1FEFC801DF91CF911F910F9108953F
:101F1000FA01AA27283051F1203181F1E8946F931A
:101F20006E7F6E5F7F4F8F4F9F4FAF4FB1E03ED0C0
:101F3000B4E03CD0670F781F891F9A1FA11D680F5E
:101F4000791F8A1F911DA11D6A0F711D811D911D91
:101F5000A11D20D009F468943F912AE0269F112406
:101F60003019305D3193DEF6CF010895462F47706A
:101F7000405D4193B3E00FD0C9F7F6CF462F4F70C5
:101F8000405D4A3318F0495D31FD4052419302D023
:101F9000A9F7EACFB4E0A6959795879577956795C9
:101FA000BA95C9F700976105710508959B01AC01C9
:101FB0000A2E06945795479537952795BA95C9F7F0
:101FC000620F731F841F951FA01D0895F894FFCF03
:101FD00054574920526563763A00203078253032D4
:101FE0007800565245463D25756D560D0A004953F9
:101FF000454E53455F58503D25756D410D0A0056BD
:1020000053454E53455F58503D25756D560D0A009A
:102010004953454E53455F59503D25756D410D0A55
:10202000005653454E53455F59503D25756D560D2D
:102030000A004953454E53455F5A503D25756D4141
:102040000D0A005653454E53455F5A503D25756D58
:10205000560D0A004953454E53455F584D3D257571
:102060006D410D0A005653454E53455F584D3D2571
:10207000756D560D0A004953454E53455F594D3D08
:1020800025756D410D0A005653454E53455F594D18
:102090003D25756D560D0A004953454E53455F5A0F
:1020A0004D3D25756D410D0A0056474E445245463B
:1020B0003D25756D560D0A0041444342353D257559
:1020C0006D410D0A005653454E53455F4241543D04
:1020D00025756D560D0A004953454E53455F4C4FCB
:0C20E00041443D25756D410D0A001400BF
:00000001FF
